{
  "_format": "hh-sol-artifact-1",
  "contractName": "VehicleRegistry",
  "sourceName": "contracts/VehicleRegistry.sol",
  "abi": [
    {
      "anonymous": false,
      "inputs": [
        {
          "indexed": true,
          "internalType": "string",
          "name": "regNumber",
          "type": "string"
        },
        {
          "indexed": true,
          "internalType": "address",
          "name": "from",
          "type": "address"
        },
        {
          "indexed": true,
          "internalType": "address",
          "name": "to",
          "type": "address"
        },
        {
          "indexed": false,
          "internalType": "string",
          "name": "reason",
          "type": "string"
        }
      ],
      "name": "OwnershipTransferred",
      "type": "event"
    },
    {
      "anonymous": false,
      "inputs": [
        {
          "indexed": true,
          "internalType": "string",
          "name": "regNumber",
          "type": "string"
        },
        {
          "indexed": true,
          "internalType": "address",
          "name": "owner",
          "type": "address"
        }
      ],
      "name": "VehicleRegistered",
      "type": "event"
    },
    {
      "anonymous": false,
      "inputs": [
        {
          "indexed": true,
          "internalType": "string",
          "name": "regNumber",
          "type": "string"
        },
        {
          "indexed": false,
          "internalType": "enum VehicleRegistry.VehicleStatus",
          "name": "status",
          "type": "uint8"
        }
      ],
      "name": "VehicleStatusChanged",
      "type": "event"
    },
    {
      "inputs": [
        {
          "internalType": "string",
          "name": "regNumber",
          "type": "string"
        }
      ],
      "name": "getCurrentOwner",
      "outputs": [
        {
          "internalType": "address",
          "name": "",
          "type": "address"
        }
      ],
      "stateMutability": "view",
      "type": "function"
    },
    {
      "inputs": [
        {
          "internalType": "string",
          "name": "regNumber",
          "type": "string"
        }
      ],
      "name": "getOwnershipHistory",
      "outputs": [
        {
          "components": [
            {
              "internalType": "address",
              "name": "from",
              "type": "address"
            },
            {
              "internalType": "address",
              "name": "to",
              "type": "address"
            },
            {
              "internalType": "uint256",
              "name": "timestamp",
              "type": "uint256"
            },
            {
              "internalType": "string",
              "name": "reason",
              "type": "string"
            },
            {
              "internalType": "bytes32",
              "name": "biometricHash",
              "type": "bytes32"
            }
          ],
          "internalType": "struct VehicleRegistry.TransferEvent[]",
          "name": "",
          "type": "tuple[]"
        }
      ],
      "stateMutability": "view",
      "type": "function"
    },
    {
      "inputs": [
        {
          "internalType": "string",
          "name": "regNumber",
          "type": "string"
        }
      ],
      "name": "getVehicleInfo",
      "outputs": [
        {
          "internalType": "string",
          "name": "chassisNumber",
          "type": "string"
        },
        {
          "internalType": "string",
          "name": "engineNumber",
          "type": "string"
        },
        {
          "internalType": "string",
          "name": "make",
          "type": "string"
        },
        {
          "internalType": "string",
          "name": "model",
          "type": "string"
        },
        {
          "internalType": "uint256",
          "name": "year",
          "type": "uint256"
        },
        {
          "internalType": "address",
          "name": "currentOwner",
          "type": "address"
        },
        {
          "internalType": "enum VehicleRegistry.VehicleStatus",
          "name": "status",
          "type": "uint8"
        },
        {
          "internalType": "uint256",
          "name": "createdAt",
          "type": "uint256"
        },
        {
          "internalType": "uint256",
          "name": "updatedAt",
          "type": "uint256"
        }
      ],
      "stateMutability": "view",
      "type": "function"
    },
    {
      "inputs": [
        {
          "internalType": "address",
          "name": "owner",
          "type": "address"
        }
      ],
      "name": "getVehiclesByOwner",
      "outputs": [
        {
          "internalType": "string[]",
          "name": "",
          "type": "string[]"
        }
      ],
      "stateMutability": "view",
      "type": "function"
    },
    {
      "inputs": [
        {
          "internalType": "string",
          "name": "regNumber",
          "type": "string"
        },
        {
          "internalType": "string",
          "name": "chassisNumber",
          "type": "string"
        },
        {
          "internalType": "string",
          "name": "engineNumber",
          "type": "string"
        },
        {
          "internalType": "string",
          "name": "make",
          "type": "string"
        },
        {
          "internalType": "string",
          "name": "model",
          "type": "string"
        },
        {
          "internalType": "uint256",
          "name": "year",
          "type": "uint256"
        },
        {
          "internalType": "address",
          "name": "owner",
          "type": "address"
        }
      ],
      "name": "registerNewVehicle",
      "outputs": [],
      "stateMutability": "nonpayable",
      "type": "function"
    },
    {
      "inputs": [
        {
          "internalType": "string",
          "name": "regNumber",
          "type": "string"
        },
        {
          "internalType": "address",
          "name": "to",
          "type": "address"
        },
        {
          "internalType": "string",
          "name": "reason",
          "type": "string"
        },
        {
          "internalType": "bytes32",
          "name": "biometricHash",
          "type": "bytes32"
        }
      ],
      "name": "transferOwnership",
      "outputs": [],
      "stateMutability": "nonpayable",
      "type": "function"
    },
    {
      "inputs": [
        {
          "internalType": "string",
          "name": "regNumber",
          "type": "string"
        },
        {
          "internalType": "enum VehicleRegistry.VehicleStatus",
          "name": "newStatus",
          "type": "uint8"
        }
      ],
      "name": "updateVehicleStatus",
      "outputs": [],
      "stateMutability": "nonpayable",
      "type": "function"
    }
  ],
  "bytecode": "0x608060405234801561001057600080fd5b5061178b806100206000396000f3fe608060405234801561001057600080fd5b506004361061007c5760003560e01c80638df699f41161005b5780638df699f4146100df578063ab32c508146100f2578063d55a772d1461011a578063ecf793cc1461014557600080fd5b8062c966be146100815780633cf33ee7146100aa578063836f2c79146100bf575b600080fd5b61009461008f366004610f82565b610158565b6040516100a1919061100f565b60405180910390f35b6100bd6100b83660046110b5565b6102ed565b005b6100d26100cd366004611127565b6103ff565b6040516100a19190611149565b6100bd6100ed3660046111ab565b6104e3565b610105610100366004610f82565b6107d6565b6040516100a19998979695949392919061125f565b61012d610128366004610f82565b610adf565b6040516001600160a01b0390911681526020016100a1565b6100bd6101533660046112ee565b610b54565b606060008260405161016a91906113da565b9081526040519081900360200190206009015460ff166101a55760405162461bcd60e51b815260040161019c906113f6565b60405180910390fd5b6000826040516101b591906113da565b9081526020016040518091039020600801805480602002602001604051908101604052809291908181526020016000905b828210156102e25760008481526020908190206040805160a0810182526005860290920180546001600160a01b0390811684526001820154169383019390935260028301549082015260038201805491929160608401919061024790611426565b80601f016020809104026020016040519081016040528092919081815260200182805461027390611426565b80156102c05780601f10610295576101008083540402835291602001916102c0565b820191906000526020600020905b8154815290600101906020018083116102a357829003601f168201915b50505050508152602001600482015481525050815260200190600101906101e6565b505050509050919050565b600080836040516102fe91906113da565b908152604051908190036020019020600981015490915060ff166103345760405162461bcd60e51b815260040161019c906113f6565b60068101546001600160a01b031633146103815760405162461bcd60e51b815260206004820152600e60248201526d139bdd08185d5d1a1bdc9a5e995960921b604482015260640161019c565b600c8101805483919060ff191660018360028111156103a2576103a2611227565b021790555042600b8201556040516103bb9084906113da565b60405180910390207f2fd96e95f8817cabfd8eec24a1c98f6c36c714ec01c09eee8dd53badf360a415836040516103f29190611460565b60405180910390a2505050565b6001600160a01b0381166000908152600160209081526040808320805482518185028101850190935280835260609492939192909184015b828210156102e257838290600052602060002001805461045690611426565b80601f016020809104026020016040519081016040528092919081815260200182805461048290611426565b80156104cf5780601f106104a4576101008083540402835291602001916104cf565b820191906000526020600020905b8154815290600101906020018083116104b257829003601f168201915b505050505081526020019060010190610437565b600080856040516104f491906113da565b908152604051908190036020019020600981015490915060ff1661052a5760405162461bcd60e51b815260040161019c906113f6565b60068101546001600160a01b031633146105865760405162461bcd60e51b815260206004820152601760248201527f4f6e6c79206f776e65722063616e207472616e73666572000000000000000000604482015260640161019c565b6001600160a01b0384166105d05760405162461bcd60e51b815260206004820152601160248201527024b73b30b634b2103732bb9037bbb732b960791b604482015260640161019c565b6000600c82015460ff1660028111156105eb576105eb611227565b146106385760405162461bcd60e51b815260206004820152601860248201527f56656869636c65207472616e7366657220626c6f636b65640000000000000000604482015260640161019c565b60068101546040805160a0810182526001600160a01b03928316808252878416602080840191825242948401948552606084018981526080850189905260088801805460018181018355600092835293909120865160059092020180549189166001600160a01b0319928316178155935192840180549390981692169190911790955592516002840155925190919060038201906106d690826114c3565b5060809190910151600490910155600782018054600181018255600091825260209091200180546001600160a01b038084166001600160a01b0319928316179092556006840180549288169290911691909117905542600b83015561073b8682610d8a565b6001600160a01b038516600090815260016020818152604083208054928301815583529091200161076c87826114c3565b50846001600160a01b0316816001600160a01b03168760405161078f91906113da565b60405180910390207f6b35716c9149e3e8d2e266f3002001005bbb35291c29e22aaab7b9c45b7b7e2d876040516107c69190611583565b60405180910390a4505050505050565b6060806060806000806000806000808a6040516107f391906113da565b9081526040519081900360200190206009015460ff166108255760405162461bcd60e51b815260040161019c906113f6565b6000808b60405161083691906113da565b908152602001604051809103902090508060010181600201826003018360040184600501548560060160009054906101000a90046001600160a01b031686600c0160009054906101000a900460ff1687600a015488600b015488805461089b90611426565b80601f01602080910402602001604051908101604052809291908181526020018280546108c790611426565b80156109145780601f106108e957610100808354040283529160200191610914565b820191906000526020600020905b8154815290600101906020018083116108f757829003601f168201915b5050505050985087805461092790611426565b80601f016020809104026020016040519081016040528092919081815260200182805461095390611426565b80156109a05780601f10610975576101008083540402835291602001916109a0565b820191906000526020600020905b81548152906001019060200180831161098357829003601f168201915b505050505097508680546109b390611426565b80601f01602080910402602001604051908101604052809291908181526020018280546109df90611426565b8015610a2c5780601f10610a0157610100808354040283529160200191610a2c565b820191906000526020600020905b815481529060010190602001808311610a0f57829003601f168201915b50505050509650858054610a3f90611426565b80601f0160208091040260200160405190810160405280929190818152602001828054610a6b90611426565b8015610ab85780601f10610a8d57610100808354040283529160200191610ab8565b820191906000526020600020905b815481529060010190602001808311610a9b57829003601f168201915b50505050509550995099509950995099509950995099509950509193959799909294969850565b60008082604051610af091906113da565b9081526040519081900360200190206009015460ff16610b225760405162461bcd60e51b815260040161019c906113f6565b600082604051610b3291906113da565b908152604051908190036020019020600601546001600160a01b031692915050565b600087604051610b6491906113da565b9081526040519081900360200190206009015460ff1615610bc75760405162461bcd60e51b815260206004820152601a60248201527f56656869636c6520616c72656164792072656769737465726564000000000000604482015260640161019c565b6001600160a01b038116610c0d5760405162461bcd60e51b815260206004820152600d60248201526c24b73b30b634b21037bbb732b960991b604482015260640161019c565b61076c8211610c555760405162461bcd60e51b815260206004820152601460248201527324b73b30b634b2103b32b434b1b632903cb2b0b960611b604482015260640161019c565b60008088604051610c6691906113da565b908152604051908190036020019020905080610c8289826114c3565b5060018101610c9188826114c3565b5060028101610ca087826114c3565b5060038101610caf86826114c3565b5060048101610cbe85826114c3565b50600581018390556006810180546001600160a01b0319166001600160a01b03841690811790915560098201805460ff19908116600190811790925542600a8501819055600b850155600c840180549091169055600091825260208181526040832080549283018155835290912001610d3789826114c3565b50816001600160a01b031688604051610d5091906113da565b604051908190038120907f0cfba914b5106da2fbba725502188ab817f680c8fe51c318c8bf6896a59f7fbd90600090a35050505050505050565b6001600160a01b0381166000908152600160205260408120905b8154811015610e83578380519060200120828281548110610dc757610dc7611596565b90600052602060002001604051610dde91906115ac565b604051809103902003610e715781548290610dfb90600190611638565b81548110610e0b57610e0b611596565b90600052602060002001828281548110610e2757610e27611596565b906000526020600020019081610e3d919061164b565b5081805480610e4e57610e4e611726565b600190038181906000526020600020016000610e6a9190610e89565b9055610e83565b80610e7b8161173c565b915050610da4565b50505050565b508054610e9590611426565b6000825580601f10610ea5575050565b601f016020900490600052602060002090810190610ec39190610ec6565b50565b5b80821115610edb5760008155600101610ec7565b5090565b634e487b7160e01b600052604160045260246000fd5b600082601f830112610f0657600080fd5b813567ffffffffffffffff80821115610f2157610f21610edf565b604051601f8301601f19908116603f01168101908282118183101715610f4957610f49610edf565b81604052838152866020858801011115610f6257600080fd5b836020870160208301376000602085830101528094505050505092915050565b600060208284031215610f9457600080fd5b813567ffffffffffffffff811115610fab57600080fd5b610fb784828501610ef5565b949350505050565b60005b83811015610fda578181015183820152602001610fc2565b50506000910152565b60008151808452610ffb816020860160208601610fbf565b601f01601f19169290920160200192915050565b60006020808301818452808551808352604092508286019150828160051b87010184880160005b838110156110a757888303603f19018552815180516001600160a01b039081168552888201511688850152868101518785015260608082015160a0828701819052919061108583880182610fe3565b6080948501519790940196909652505094870194925090860190600101611036565b509098975050505050505050565b600080604083850312156110c857600080fd5b823567ffffffffffffffff8111156110df57600080fd5b6110eb85828601610ef5565b92505060208301356003811061110057600080fd5b809150509250929050565b80356001600160a01b038116811461112257600080fd5b919050565b60006020828403121561113957600080fd5b6111428261110b565b9392505050565b6000602080830181845280855180835260408601915060408160051b870101925083870160005b8281101561119e57603f1988860301845261118c858351610fe3565b94509285019290850190600101611170565b5092979650505050505050565b600080600080608085870312156111c157600080fd5b843567ffffffffffffffff808211156111d957600080fd5b6111e588838901610ef5565b95506111f36020880161110b565b9450604087013591508082111561120957600080fd5b5061121687828801610ef5565b949793965093946060013593505050565b634e487b7160e01b600052602160045260246000fd5b6003811061125b57634e487b7160e01b600052602160045260246000fd5b9052565b60006101208083526112738184018d610fe3565b90508281036020840152611287818c610fe3565b9050828103604084015261129b818b610fe3565b905082810360608401526112af818a610fe3565b608084018990526001600160a01b03881660a085015291506112d6905060c083018661123d565b60e08201939093526101000152979650505050505050565b600080600080600080600060e0888a03121561130957600080fd5b873567ffffffffffffffff8082111561132157600080fd5b61132d8b838c01610ef5565b985060208a013591508082111561134357600080fd5b61134f8b838c01610ef5565b975060408a013591508082111561136557600080fd5b6113718b838c01610ef5565b965060608a013591508082111561138757600080fd5b6113938b838c01610ef5565b955060808a01359150808211156113a957600080fd5b506113b68a828b01610ef5565b93505060a088013591506113cc60c0890161110b565b905092959891949750929550565b600082516113ec818460208701610fbf565b9190910192915050565b60208082526016908201527515995a1a58db19481b9bdd081c9959da5cdd195c995960521b604082015260600190565b600181811c9082168061143a57607f821691505b60208210810361145a57634e487b7160e01b600052602260045260246000fd5b50919050565b6020810161146e828461123d565b92915050565b601f8211156114be57600081815260208120601f850160051c8101602086101561149b5750805b601f850160051c820191505b818110156114ba578281556001016114a7565b5050505b505050565b815167ffffffffffffffff8111156114dd576114dd610edf565b6114f1816114eb8454611426565b84611474565b602080601f831160018114611526576000841561150e5750858301515b600019600386901b1c1916600185901b1785556114ba565b600085815260208120601f198616915b8281101561155557888601518255948401946001909101908401611536565b50858210156115735787850151600019600388901b60f8161c191681555b5050505050600190811b01905550565b6020815260006111426020830184610fe3565b634e487b7160e01b600052603260045260246000fd5b60008083546115ba81611426565b600182811680156115d257600181146115e757611616565b60ff1984168752821515830287019450611616565b8760005260208060002060005b8581101561160d5781548a8201529084019082016115f4565b50505082870194505b50929695505050505050565b634e487b7160e01b600052601160045260246000fd5b8181038181111561146e5761146e611622565b818103611656575050565b6116608254611426565b67ffffffffffffffff81111561167857611678610edf565b611686816114eb8454611426565b6000601f8211600181146116ba57600083156116a25750848201545b600019600385901b1c1916600184901b17845561171f565b600085815260209020601f19841690600086815260209020845b838110156116f457828601548255600195860195909101906020016116d4565b50858310156117125781850154600019600388901b60f8161c191681555b50505060018360011b0184555b5050505050565b634e487b7160e01b600052603160045260246000fd5b60006001820161174e5761174e611622565b506001019056fea26469706673582212202e3e8b4ff5e2fddffa09eb4aeb155508b0c30d161ddfba78a8aa09d0123b01f064736f6c63430008140033",
  "linkReferences": {},
  "deployedLinkReferences": {}
}