{
  "_format": "hh-sol-artifact-1",
  "contractName": "VehicleRegistry",
  "sourceName": "contracts/VehicleRegistry.sol",
  "abi": [
    {
      "inputs": [],
      "stateMutability": "nonpayable",
      "type": "constructor"
    },
    {
      "anonymous": false,
      "inputs": [
        {
          "indexed": true,
          "internalType": "string",
          "name": "regNumber",
          "type": "string"
        },
        {
          "indexed": true,
          "internalType": "address",
          "name": "from",
          "type": "address"
        },
        {
          "indexed": true,
          "internalType": "address",
          "name": "to",
          "type": "address"
        },
        {
          "indexed": false,
          "internalType": "string",
          "name": "reason",
          "type": "string"
        }
      ],
      "name": "OwnershipTransferred",
      "type": "event"
    },
    {
      "anonymous": false,
      "inputs": [
        {
          "indexed": true,
          "internalType": "string",
          "name": "regNumber",
          "type": "string"
        },
        {
          "indexed": true,
          "internalType": "address",
          "name": "owner",
          "type": "address"
        }
      ],
      "name": "VehicleRegistered",
      "type": "event"
    },
    {
      "anonymous": false,
      "inputs": [
        {
          "indexed": true,
          "internalType": "string",
          "name": "regNumber",
          "type": "string"
        },
        {
          "indexed": false,
          "internalType": "enum VehicleRegistry.VehicleStatus",
          "name": "status",
          "type": "uint8"
        }
      ],
      "name": "VehicleStatusChanged",
      "type": "event"
    },
    {
      "inputs": [],
      "name": "admin",
      "outputs": [
        {
          "internalType": "address",
          "name": "",
          "type": "address"
        }
      ],
      "stateMutability": "view",
      "type": "function"
    },
    {
      "inputs": [
        {
          "internalType": "string",
          "name": "regNumber",
          "type": "string"
        }
      ],
      "name": "getCurrentOwner",
      "outputs": [
        {
          "internalType": "address",
          "name": "",
          "type": "address"
        }
      ],
      "stateMutability": "view",
      "type": "function"
    },
    {
      "inputs": [
        {
          "internalType": "string",
          "name": "regNumber",
          "type": "string"
        }
      ],
      "name": "getOwnershipHistory",
      "outputs": [
        {
          "components": [
            {
              "internalType": "address",
              "name": "from",
              "type": "address"
            },
            {
              "internalType": "address",
              "name": "to",
              "type": "address"
            },
            {
              "internalType": "uint256",
              "name": "timestamp",
              "type": "uint256"
            },
            {
              "internalType": "string",
              "name": "reason",
              "type": "string"
            },
            {
              "internalType": "bytes32",
              "name": "biometricHash",
              "type": "bytes32"
            }
          ],
          "internalType": "struct VehicleRegistry.TransferEvent[]",
          "name": "",
          "type": "tuple[]"
        }
      ],
      "stateMutability": "view",
      "type": "function"
    },
    {
      "inputs": [
        {
          "internalType": "string",
          "name": "regNumber",
          "type": "string"
        }
      ],
      "name": "getVehicleInfo",
      "outputs": [
        {
          "internalType": "string",
          "name": "chassisNumber",
          "type": "string"
        },
        {
          "internalType": "string",
          "name": "engineNumber",
          "type": "string"
        },
        {
          "internalType": "string",
          "name": "make",
          "type": "string"
        },
        {
          "internalType": "string",
          "name": "model",
          "type": "string"
        },
        {
          "internalType": "uint256",
          "name": "year",
          "type": "uint256"
        },
        {
          "internalType": "address",
          "name": "currentOwner",
          "type": "address"
        },
        {
          "internalType": "enum VehicleRegistry.VehicleStatus",
          "name": "status",
          "type": "uint8"
        },
        {
          "internalType": "uint256",
          "name": "createdAt",
          "type": "uint256"
        },
        {
          "internalType": "uint256",
          "name": "updatedAt",
          "type": "uint256"
        }
      ],
      "stateMutability": "view",
      "type": "function"
    },
    {
      "inputs": [
        {
          "internalType": "address",
          "name": "owner",
          "type": "address"
        }
      ],
      "name": "getVehiclesByOwner",
      "outputs": [
        {
          "internalType": "string[]",
          "name": "",
          "type": "string[]"
        }
      ],
      "stateMutability": "view",
      "type": "function"
    },
    {
      "inputs": [
        {
          "internalType": "string",
          "name": "regNumber",
          "type": "string"
        },
        {
          "internalType": "string",
          "name": "chassisNumber",
          "type": "string"
        },
        {
          "internalType": "string",
          "name": "engineNumber",
          "type": "string"
        },
        {
          "internalType": "string",
          "name": "make",
          "type": "string"
        },
        {
          "internalType": "string",
          "name": "model",
          "type": "string"
        },
        {
          "internalType": "uint256",
          "name": "year",
          "type": "uint256"
        },
        {
          "internalType": "address",
          "name": "owner",
          "type": "address"
        }
      ],
      "name": "registerNewVehicle",
      "outputs": [],
      "stateMutability": "nonpayable",
      "type": "function"
    },
    {
      "inputs": [
        {
          "internalType": "string",
          "name": "regNumber",
          "type": "string"
        },
        {
          "internalType": "address",
          "name": "to",
          "type": "address"
        },
        {
          "internalType": "string",
          "name": "reason",
          "type": "string"
        },
        {
          "internalType": "bytes32",
          "name": "biometricHash",
          "type": "bytes32"
        }
      ],
      "name": "transferOwnership",
      "outputs": [],
      "stateMutability": "nonpayable",
      "type": "function"
    },
    {
      "inputs": [
        {
          "internalType": "string",
          "name": "regNumber",
          "type": "string"
        },
        {
          "internalType": "enum VehicleRegistry.VehicleStatus",
          "name": "newStatus",
          "type": "uint8"
        }
      ],
      "name": "updateVehicleStatus",
      "outputs": [],
      "stateMutability": "nonpayable",
      "type": "function"
    }
  ],
  "bytecode": "0x608060405234801561001057600080fd5b50600080546001600160a01b031916331790556117c7806100326000396000f3fe608060405234801561001057600080fd5b50600436106100875760003560e01c8063ab32c5081161005b578063ab32c508146100fd578063d55a772d14610125578063ecf793cc14610150578063f851a4401461016357600080fd5b8062c966be1461008c5780633cf33ee7146100b5578063836f2c79146100ca5780638df699f4146100ea575b600080fd5b61009f61009a366004610fbe565b610176565b6040516100ac919061104b565b60405180910390f35b6100c86100c33660046110f1565b61030b565b005b6100dd6100d8366004611163565b61041e565b6040516100ac9190611185565b6100c86100f83660046111e7565b610502565b61011061010b366004610fbe565b61080c565b6040516100ac9998979695949392919061129b565b610138610133366004610fbe565b610b17565b6040516001600160a01b0390911681526020016100ac565b6100c861015e36600461132a565b610b8d565b600054610138906001600160a01b031681565b60606001826040516101889190611416565b9081526040519081900360200190206009015460ff166101c35760405162461bcd60e51b81526004016101ba90611432565b60405180910390fd5b6001826040516101d39190611416565b9081526020016040518091039020600801805480602002602001604051908101604052809291908181526020016000905b828210156103005760008481526020908190206040805160a0810182526005860290920180546001600160a01b0390811684526001820154169383019390935260028301549082015260038201805491929160608401919061026590611462565b80601f016020809104026020016040519081016040528092919081815260200182805461029190611462565b80156102de5780601f106102b3576101008083540402835291602001916102de565b820191906000526020600020905b8154815290600101906020018083116102c157829003601f168201915b5050505050815260200160048201548152505081526020019060010190610204565b505050509050919050565b600060018360405161031d9190611416565b908152604051908190036020019020600981015490915060ff166103535760405162461bcd60e51b81526004016101ba90611432565b60068101546001600160a01b031633146103a05760405162461bcd60e51b815260206004820152600e60248201526d139bdd08185d5d1a1bdc9a5e995960921b60448201526064016101ba565b600c8101805483919060ff191660018360028111156103c1576103c1611263565b021790555042600b8201556040516103da908490611416565b60405180910390207f2fd96e95f8817cabfd8eec24a1c98f6c36c714ec01c09eee8dd53badf360a41583604051610411919061149c565b60405180910390a2505050565b6001600160a01b0381166000908152600260209081526040808320805482518185028101850190935280835260609492939192909184015b8282101561030057838290600052602060002001805461047590611462565b80601f01602080910402602001604051908101604052809291908181526020018280546104a190611462565b80156104ee5780601f106104c3576101008083540402835291602001916104ee565b820191906000526020600020905b8154815290600101906020018083116104d157829003601f168201915b505050505081526020019060010190610456565b60006001856040516105149190611416565b908152604051908190036020019020600981015490915060ff1661054a5760405162461bcd60e51b81526004016101ba90611432565b60068101546001600160a01b031633148061056f57506000546001600160a01b031633145b6105bb5760405162461bcd60e51b815260206004820181905260248201527f4f6e6c79206f776e6572206f722061646d696e2063616e207472616e7366657260448201526064016101ba565b6001600160a01b0384166106055760405162461bcd60e51b815260206004820152601160248201527024b73b30b634b2103732bb9037bbb732b960791b60448201526064016101ba565b6000600c82015460ff16600281111561062057610620611263565b1461066d5760405162461bcd60e51b815260206004820152601860248201527f56656869636c65207472616e7366657220626c6f636b6564000000000000000060448201526064016101ba565b60068101546040805160a0810182526001600160a01b03928316808252878416602080840191825242948401948552606084018981526080850189905260088801805460018181018355600092835293909120865160059092020180549189166001600160a01b03199283161781559351928401805493909816921691909117909555925160028401559251909190600382019061070b90826114ff565b5060809190910151600490910155600782018054600181018255600091825260209091200180546001600160a01b038084166001600160a01b0319928316179092556006840180549288169290911691909117905542600b8301556107708682610dc6565b6001600160a01b0385166000908152600260209081526040822080546001810182559083529120016107a287826114ff565b50846001600160a01b0316816001600160a01b0316876040516107c59190611416565b60405180910390207f6b35716c9149e3e8d2e266f3002001005bbb35291c29e22aaab7b9c45b7b7e2d876040516107fc91906115bf565b60405180910390a4505050505050565b606080606080600080600080600060018a60405161082a9190611416565b9081526040519081900360200190206009015460ff1661085c5760405162461bcd60e51b81526004016101ba90611432565b600060018b60405161086e9190611416565b908152602001604051809103902090508060010181600201826003018360040184600501548560060160009054906101000a90046001600160a01b031686600c0160009054906101000a900460ff1687600a015488600b01548880546108d390611462565b80601f01602080910402602001604051908101604052809291908181526020018280546108ff90611462565b801561094c5780601f106109215761010080835404028352916020019161094c565b820191906000526020600020905b81548152906001019060200180831161092f57829003601f168201915b5050505050985087805461095f90611462565b80601f016020809104026020016040519081016040528092919081815260200182805461098b90611462565b80156109d85780601f106109ad576101008083540402835291602001916109d8565b820191906000526020600020905b8154815290600101906020018083116109bb57829003601f168201915b505050505097508680546109eb90611462565b80601f0160208091040260200160405190810160405280929190818152602001828054610a1790611462565b8015610a645780601f10610a3957610100808354040283529160200191610a64565b820191906000526020600020905b815481529060010190602001808311610a4757829003601f168201915b50505050509650858054610a7790611462565b80601f0160208091040260200160405190810160405280929190818152602001828054610aa390611462565b8015610af05780601f10610ac557610100808354040283529160200191610af0565b820191906000526020600020905b815481529060010190602001808311610ad357829003601f168201915b50505050509550995099509950995099509950995099509950509193959799909294969850565b6000600182604051610b299190611416565b9081526040519081900360200190206009015460ff16610b5b5760405162461bcd60e51b81526004016101ba90611432565b600182604051610b6b9190611416565b908152604051908190036020019020600601546001600160a01b031692915050565b600187604051610b9d9190611416565b9081526040519081900360200190206009015460ff1615610c005760405162461bcd60e51b815260206004820152601a60248201527f56656869636c6520616c7265616479207265676973746572656400000000000060448201526064016101ba565b6001600160a01b038116610c465760405162461bcd60e51b815260206004820152600d60248201526c24b73b30b634b21037bbb732b960991b60448201526064016101ba565b61076c8211610c8e5760405162461bcd60e51b815260206004820152601460248201527324b73b30b634b2103b32b434b1b632903cb2b0b960611b60448201526064016101ba565b6000600188604051610ca09190611416565b908152604051908190036020019020905080610cbc89826114ff565b5060018101610ccb88826114ff565b5060028101610cda87826114ff565b5060038101610ce986826114ff565b5060048101610cf885826114ff565b50600581018390556006810180546001600160a01b0319166001600160a01b03841690811790915560098201805460ff19908116600190811790925542600a8501819055600b850155600c8401805490911690556000918252600260209081526040832080549283018155835290912001610d7389826114ff565b50816001600160a01b031688604051610d8c9190611416565b604051908190038120907f0cfba914b5106da2fbba725502188ab817f680c8fe51c318c8bf6896a59f7fbd90600090a35050505050505050565b6001600160a01b0381166000908152600260205260408120905b8154811015610ebf578380519060200120828281548110610e0357610e036115d2565b90600052602060002001604051610e1a91906115e8565b604051809103902003610ead5781548290610e3790600190611674565b81548110610e4757610e476115d2565b90600052602060002001828281548110610e6357610e636115d2565b906000526020600020019081610e799190611687565b5081805480610e8a57610e8a611762565b600190038181906000526020600020016000610ea69190610ec5565b9055610ebf565b80610eb781611778565b915050610de0565b50505050565b508054610ed190611462565b6000825580601f10610ee1575050565b601f016020900490600052602060002090810190610eff9190610f02565b50565b5b80821115610f175760008155600101610f03565b5090565b634e487b7160e01b600052604160045260246000fd5b600082601f830112610f4257600080fd5b813567ffffffffffffffff80821115610f5d57610f5d610f1b565b604051601f8301601f19908116603f01168101908282118183101715610f8557610f85610f1b565b81604052838152866020858801011115610f9e57600080fd5b836020870160208301376000602085830101528094505050505092915050565b600060208284031215610fd057600080fd5b813567ffffffffffffffff811115610fe757600080fd5b610ff384828501610f31565b949350505050565b60005b83811015611016578181015183820152602001610ffe565b50506000910152565b60008151808452611037816020860160208601610ffb565b601f01601f19169290920160200192915050565b60006020808301818452808551808352604092508286019150828160051b87010184880160005b838110156110e357888303603f19018552815180516001600160a01b039081168552888201511688850152868101518785015260608082015160a082870181905291906110c18388018261101f565b6080948501519790940196909652505094870194925090860190600101611072565b509098975050505050505050565b6000806040838503121561110457600080fd5b823567ffffffffffffffff81111561111b57600080fd5b61112785828601610f31565b92505060208301356003811061113c57600080fd5b809150509250929050565b80356001600160a01b038116811461115e57600080fd5b919050565b60006020828403121561117557600080fd5b61117e82611147565b9392505050565b6000602080830181845280855180835260408601915060408160051b870101925083870160005b828110156111da57603f198886030184526111c885835161101f565b945092850192908501906001016111ac565b5092979650505050505050565b600080600080608085870312156111fd57600080fd5b843567ffffffffffffffff8082111561121557600080fd5b61122188838901610f31565b955061122f60208801611147565b9450604087013591508082111561124557600080fd5b5061125287828801610f31565b949793965093946060013593505050565b634e487b7160e01b600052602160045260246000fd5b6003811061129757634e487b7160e01b600052602160045260246000fd5b9052565b60006101208083526112af8184018d61101f565b905082810360208401526112c3818c61101f565b905082810360408401526112d7818b61101f565b905082810360608401526112eb818a61101f565b608084018990526001600160a01b03881660a08501529150611312905060c0830186611279565b60e08201939093526101000152979650505050505050565b600080600080600080600060e0888a03121561134557600080fd5b873567ffffffffffffffff8082111561135d57600080fd5b6113698b838c01610f31565b985060208a013591508082111561137f57600080fd5b61138b8b838c01610f31565b975060408a01359150808211156113a157600080fd5b6113ad8b838c01610f31565b965060608a01359150808211156113c357600080fd5b6113cf8b838c01610f31565b955060808a01359150808211156113e557600080fd5b506113f28a828b01610f31565b93505060a0880135915061140860c08901611147565b905092959891949750929550565b60008251611428818460208701610ffb565b9190910192915050565b60208082526016908201527515995a1a58db19481b9bdd081c9959da5cdd195c995960521b604082015260600190565b600181811c9082168061147657607f821691505b60208210810361149657634e487b7160e01b600052602260045260246000fd5b50919050565b602081016114aa8284611279565b92915050565b601f8211156114fa57600081815260208120601f850160051c810160208610156114d75750805b601f850160051c820191505b818110156114f6578281556001016114e3565b5050505b505050565b815167ffffffffffffffff81111561151957611519610f1b565b61152d816115278454611462565b846114b0565b602080601f831160018114611562576000841561154a5750858301515b600019600386901b1c1916600185901b1785556114f6565b600085815260208120601f198616915b8281101561159157888601518255948401946001909101908401611572565b50858210156115af5787850151600019600388901b60f8161c191681555b5050505050600190811b01905550565b60208152600061117e602083018461101f565b634e487b7160e01b600052603260045260246000fd5b60008083546115f681611462565b6001828116801561160e576001811461162357611652565b60ff1984168752821515830287019450611652565b8760005260208060002060005b858110156116495781548a820152908401908201611630565b50505082870194505b50929695505050505050565b634e487b7160e01b600052601160045260246000fd5b818103818111156114aa576114aa61165e565b818103611692575050565b61169c8254611462565b67ffffffffffffffff8111156116b4576116b4610f1b565b6116c2816115278454611462565b6000601f8211600181146116f657600083156116de5750848201545b600019600385901b1c1916600184901b17845561175b565b600085815260209020601f19841690600086815260209020845b838110156117305782860154825560019586019590910190602001611710565b508583101561174e5781850154600019600388901b60f8161c191681555b50505060018360011b0184555b5050505050565b634e487b7160e01b600052603160045260246000fd5b60006001820161178a5761178a61165e565b506001019056fea264697066735822122078d9340310653a07c27865e517fcdf589f4b09e755dae42f452a5214e375037d64736f6c63430008140033",
  "linkReferences": {},
  "deployedLinkReferences": {}
}